{"abi":[{"type":"constructor","inputs":[{"name":"_verifier","type":"address","internalType":"address"},{"name":"_guestImageId","type":"bytes32","internalType":"bytes32"}],"stateMutability":"nonpayable"},{"type":"function","name":"checkProof","inputs":[{"name":"journal","type":"bytes","internalType":"bytes"},{"name":"seal","type":"bytes","internalType":"bytes"}],"outputs":[{"name":"","type":"bool","internalType":"bool"}],"stateMutability":"view"},{"type":"function","name":"getLatestData","inputs":[],"outputs":[{"name":"safetyScore","type":"uint64","internalType":"uint64"},{"name":"totalAssets","type":"uint128","internalType":"uint128"},{"name":"totalLiabilities","type":"uint128","internalType":"uint128"},{"name":"timestamp","type":"uint64","internalType":"uint64"}],"stateMutability":"view"},{"type":"function","name":"getSafetyScorePercentage","inputs":[],"outputs":[{"name":"","type":"uint256","internalType":"uint256"}],"stateMutability":"view"},{"type":"function","name":"guestImageId","inputs":[],"outputs":[{"name":"","type":"bytes32","internalType":"bytes32"}],"stateMutability":"view"},{"type":"function","name":"isHealthy","inputs":[],"outputs":[{"name":"","type":"bool","internalType":"bool"}],"stateMutability":"view"},{"type":"function","name":"latestSafetyScore","inputs":[],"outputs":[{"name":"","type":"uint64","internalType":"uint64"}],"stateMutability":"view"},{"type":"function","name":"latestTimestamp","inputs":[],"outputs":[{"name":"","type":"uint64","internalType":"uint64"}],"stateMutability":"view"},{"type":"function","name":"latestTotalAssets","inputs":[],"outputs":[{"name":"","type":"uint128","internalType":"uint128"}],"stateMutability":"view"},{"type":"function","name":"latestTotalLiabilities","inputs":[],"outputs":[{"name":"","type":"uint128","internalType":"uint128"}],"stateMutability":"view"},{"type":"function","name":"verificationCount","inputs":[],"outputs":[{"name":"","type":"uint256","internalType":"uint256"}],"stateMutability":"view"},{"type":"function","name":"verifier","inputs":[],"outputs":[{"name":"","type":"address","internalType":"contract IRiscZeroVerifier"}],"stateMutability":"view"},{"type":"function","name":"verifyAndStore","inputs":[{"name":"journal","type":"bytes","internalType":"bytes"},{"name":"seal","type":"bytes","internalType":"bytes"}],"outputs":[],"stateMutability":"nonpayable"},{"type":"event","name":"ProofVerified","inputs":[{"name":"imageId","type":"bytes32","indexed":true,"internalType":"bytes32"},{"name":"safetyScore","type":"uint64","indexed":false,"internalType":"uint64"},{"name":"totalAssets","type":"uint128","indexed":false,"internalType":"uint128"},{"name":"totalLiabilities","type":"uint128","indexed":false,"internalType":"uint128"},{"name":"timestamp","type":"uint64","indexed":false,"internalType":"uint64"}],"anonymous":false},{"type":"event","name":"VerificationFailed","inputs":[{"name":"imageId","type":"bytes32","indexed":true,"internalType":"bytes32"},{"name":"reason","type":"string","indexed":false,"internalType":"string"}],"anonymous":false}],"bytecode":{"object":"0x60a060405234801561000f575f5ffd5b506040516116b43803806116b4833981810160405281019061003191906101c2565b5f73ffffffffffffffffffffffffffffffffffffffff168273ffffffffffffffffffffffffffffffffffffffff160361009f576040517f08c379a00000000000000000000000000000000000000000000000000000000081526004016100969061025a565b60405180910390fd5b5f5f1b81036100e3576040517f08c379a00000000000000000000000000000000000000000000000000000000081526004016100da906102c2565b60405180910390fd5b815f5f6101000a81548173ffffffffffffffffffffffffffffffffffffffff021916908373ffffffffffffffffffffffffffffffffffffffff160217905550806080818152505050506102e0565b5f5ffd5b5f73ffffffffffffffffffffffffffffffffffffffff82169050919050565b5f61015e82610135565b9050919050565b61016e81610154565b8114610178575f5ffd5b50565b5f8151905061018981610165565b92915050565b5f819050919050565b6101a18161018f565b81146101ab575f5ffd5b50565b5f815190506101bc81610198565b92915050565b5f5f604083850312156101d8576101d7610131565b5b5f6101e58582860161017b565b92505060206101f6858286016101ae565b9150509250929050565b5f82825260208201905092915050565b7f496e76616c6964207665726966696572206164647265737300000000000000005f82015250565b5f610244601883610200565b915061024f82610210565b602082019050919050565b5f6020820190508181035f83015261027181610238565b9050919050565b7f496e76616c696420696d616765204944000000000000000000000000000000005f82015250565b5f6102ac601083610200565b91506102b782610278565b602082019050919050565b5f6020820190508181035f8301526102d9816102a0565b9050919050565b60805161139961031b5f395f81816102ce015281816103c90152818161045c01528181610512015281816106b601526108ad01526113995ff3fe608060405234801561000f575f5ffd5b50600436106100b2575f3560e01c8063a825c6f81161006f578063a825c6f81461016a578063ab757d6114610186578063b1b7c60d146101a7578063e17f84a5146101c5578063e4020804146101e3578063f327ff9614610201576100b2565b80630830e22e146100b65780632b7ac3f3146100d457806334966b46146100f25780633aebbefd146101105780638205bf6a1461012e5780639a0039051461014c575b5f5ffd5b6100be610231565b6040516100cb9190610a3c565b60405180910390f35b6100dc610237565b6040516100e99190610acf565b60405180910390f35b6100fa61025b565b6040516101079190610a3c565b60405180910390f35b61011861029a565b6040516101259190610b0a565b60405180910390f35b6101366102b3565b6040516101439190610b0a565b60405180910390f35b6101546102cc565b6040516101619190610b3b565b60405180910390f35b610184600480360381019061017f9190610bc6565b6102f0565b005b61018e61071d565b60405161019e9493929190610c6e565b60405180910390f35b6101af610798565b6040516101bc9190610cb1565b60405180910390f35b6101cd6107b9565b6040516101da9190610cb1565b60405180910390f35b6101eb6107db565b6040516101f89190610ce4565b60405180910390f35b61021b60048036038101906102169190610bc6565b610806565b6040516102289190610ce4565b60405180910390f35b60035481565b5f5f9054906101000a900473ffffffffffffffffffffffffffffffffffffffff1681565b5f61271060645f60149054906101000a900467ffffffffffffffff1667ffffffffffffffff1661028b9190610d2a565b6102959190610d98565b905090565b5f60149054906101000a900467ffffffffffffffff1681565b60025f9054906101000a900467ffffffffffffffff1681565b7f000000000000000000000000000000000000000000000000000000000000000081565b60308484905014610336576040517f08c379a000000000000000000000000000000000000000000000000000000000815260040161032d90610e48565b60405180910390fd5b5f60028585604051610349929190610ea2565b602060405180830381855afa158015610364573d5f5f3e3d5ffd5b5050506040513d601f19601f820116820180604052508101906103879190610ee4565b90505f5f9054906101000a900473ffffffffffffffffffffffffffffffffffffffff1673ffffffffffffffffffffffffffffffffffffffff1663ab750e7584847f0000000000000000000000000000000000000000000000000000000000000000856040518563ffffffff1660e01b81526004016104089493929190610f5b565b5f6040518083038186803b15801561041e575f5ffd5b505afa92505050801561042f575060015b6105a15761043b610fa5565b806308c379a00361050e575061044f611022565b8061045a5750610510565b7f00000000000000000000000000000000000000000000000000000000000000007f1b274bac0e8bb49d3ad90709790a3bf2aa1b86313b4c1a7ae5af9cb7832f7204826040516104aa9190611101565b60405180910390a2806040516020016104c391906111a5565b6040516020818303038152906040526040517f08c379a00000000000000000000000000000000000000000000000000000000081526004016105059190611101565b60405180910390fd5b505b7f00000000000000000000000000000000000000000000000000000000000000007f1b274bac0e8bb49d3ad90709790a3bf2aa1b86313b4c1a7ae5af9cb7832f720460405161055e90611210565b60405180910390a26040517f08c379a00000000000000000000000000000000000000000000000000000000081526004016105989061129e565b60405180910390fd5b5f6105ad86865f61092e565b90505f6105bc878760086109a5565b90505f6105cb888860186109a5565b90505f6105da8989602861092e565b9050835f60146101000a81548167ffffffffffffffff021916908367ffffffffffffffff1602179055508260015f6101000a8154816fffffffffffffffffffffffffffffffff02191690836fffffffffffffffffffffffffffffffff16021790555081600160106101000a8154816fffffffffffffffffffffffffffffffff02191690836fffffffffffffffffffffffffffffffff1602179055508060025f6101000a81548167ffffffffffffffff021916908367ffffffffffffffff16021790555060035f8154809291906106af906112bc565b91905055507f00000000000000000000000000000000000000000000000000000000000000007f4a37e13046dcfc565d21991422f2b7cf7817cc937893beff70153c47f2720a098585858560405161070a9493929190610c6e565b60405180910390a2505050505050505050565b5f5f5f5f5f60149054906101000a900467ffffffffffffffff1660015f9054906101000a90046fffffffffffffffffffffffffffffffff16600160109054906101000a90046fffffffffffffffffffffffffffffffff1660025f9054906101000a900467ffffffffffffffff16935093509350935090919293565b60015f9054906101000a90046fffffffffffffffffffffffffffffffff1681565b600160109054906101000a90046fffffffffffffffffffffffffffffffff1681565b5f6127105f60149054906101000a900467ffffffffffffffff1667ffffffffffffffff161015905090565b5f6030858590501461081a575f9050610926565b5f6002868660405161082d929190610ea2565b602060405180830381855afa158015610848573d5f5f3e3d5ffd5b5050506040513d601f19601f8201168201806040525081019061086b9190610ee4565b90505f5f9054906101000a900473ffffffffffffffffffffffffffffffffffffffff1673ffffffffffffffffffffffffffffffffffffffff1663ab750e7585857f0000000000000000000000000000000000000000000000000000000000000000856040518563ffffffff1660e01b81526004016108ec9493929190610f5b565b5f6040518083038186803b158015610902575f5ffd5b505afa925050508015610913575060015b610920575f915050610926565b60019150505b949350505050565b5f5f5f90505f5f90505b60088110156109995760088161094e9190610d2a565b8686838761095c9190611303565b81811061096c5761096b611336565b5b9050013560f81c60f81b60f81c60ff1667ffffffffffffffff16901b821791508080600101915050610938565b50809150509392505050565b5f5f5f90505f5f90505b6010811015610a18576008816109c59190610d2a565b868683876109d39190611303565b8181106109e3576109e2611336565b5b9050013560f81c60f81b60f81c60ff166fffffffffffffffffffffffffffffffff16901b8217915080806001019150506109af565b50809150509392505050565b5f819050919050565b610a3681610a24565b82525050565b5f602082019050610a4f5f830184610a2d565b92915050565b5f73ffffffffffffffffffffffffffffffffffffffff82169050919050565b5f819050919050565b5f610a97610a92610a8d84610a55565b610a74565b610a55565b9050919050565b5f610aa882610a7d565b9050919050565b5f610ab982610a9e565b9050919050565b610ac981610aaf565b82525050565b5f602082019050610ae25f830184610ac0565b92915050565b5f67ffffffffffffffff82169050919050565b610b0481610ae8565b82525050565b5f602082019050610b1d5f830184610afb565b92915050565b5f819050919050565b610b3581610b23565b82525050565b5f602082019050610b4e5f830184610b2c565b92915050565b5f604051905090565b5f5ffd5b5f5ffd5b5f5ffd5b5f5ffd5b5f5ffd5b5f5f83601f840112610b8657610b85610b65565b5b8235905067ffffffffffffffff811115610ba357610ba2610b69565b5b602083019150836001820283011115610bbf57610bbe610b6d565b5b9250929050565b5f5f5f5f60408587031215610bde57610bdd610b5d565b5b5f85013567ffffffffffffffff811115610bfb57610bfa610b61565b5b610c0787828801610b71565b9450945050602085013567ffffffffffffffff811115610c2a57610c29610b61565b5b610c3687828801610b71565b925092505092959194509250565b5f6fffffffffffffffffffffffffffffffff82169050919050565b610c6881610c44565b82525050565b5f608082019050610c815f830187610afb565b610c8e6020830186610c5f565b610c9b6040830185610c5f565b610ca86060830184610afb565b95945050505050565b5f602082019050610cc45f830184610c5f565b92915050565b5f8115159050919050565b610cde81610cca565b82525050565b5f602082019050610cf75f830184610cd5565b92915050565b7f4e487b71000000000000000000000000000000000000000000000000000000005f52601160045260245ffd5b5f610d3482610a24565b9150610d3f83610a24565b9250828202610d4d81610a24565b91508282048414831517610d6457610d63610cfd565b5b5092915050565b7f4e487b71000000000000000000000000000000000000000000000000000000005f52601260045260245ffd5b5f610da282610a24565b9150610dad83610a24565b925082610dbd57610dbc610d6b565b5b828204905092915050565b5f82825260208201905092915050565b7f496e76616c6964206a6f75726e616c206c656e6774683a2065787065637465645f8201527f2034382062797465730000000000000000000000000000000000000000000000602082015250565b5f610e32602983610dc8565b9150610e3d82610dd8565b604082019050919050565b5f6020820190508181035f830152610e5f81610e26565b9050919050565b5f81905092915050565b828183375f83830152505050565b5f610e898385610e66565b9350610e96838584610e70565b82840190509392505050565b5f610eae828486610e7e565b91508190509392505050565b610ec381610b23565b8114610ecd575f5ffd5b50565b5f81519050610ede81610eba565b92915050565b5f60208284031215610ef957610ef8610b5d565b5b5f610f0684828501610ed0565b91505092915050565b5f82825260208201905092915050565b5f601f19601f8301169050919050565b5f610f3a8385610f0f565b9350610f47838584610e70565b610f5083610f1f565b840190509392505050565b5f6060820190508181035f830152610f74818688610f2f565b9050610f836020830185610b2c565b610f906040830184610b2c565b95945050505050565b5f8160e01c9050919050565b5f60033d1115610fc15760045f5f3e610fbe5f51610f99565b90505b90565b7f4e487b71000000000000000000000000000000000000000000000000000000005f52604160045260245ffd5b610ffa82610f1f565b810181811067ffffffffffffffff8211171561101957611018610fc4565b5b80604052505050565b5f60443d106110ae57611033610b54565b60043d036004823e80513d602482011167ffffffffffffffff8211171561105b5750506110ae565b808201805167ffffffffffffffff81111561107957505050506110ae565b80602083010160043d0385018111156110965750505050506110ae565b6110a582602001850186610ff1565b82955050505050505b90565b5f81519050919050565b8281835e5f83830152505050565b5f6110d3826110b1565b6110dd8185610dc8565b93506110ed8185602086016110bb565b6110f681610f1f565b840191505092915050565b5f6020820190508181035f83015261111981846110c9565b905092915050565b5f81905092915050565b7f50726f6f6620766572696669636174696f6e206661696c65643a2000000000005f82015250565b5f61115f601b83611121565b915061116a8261112b565b601b82019050919050565b5f61117f826110b1565b6111898185611121565b93506111998185602086016110bb565b80840191505092915050565b5f6111af82611153565b91506111bb8284611175565b915081905092915050565b7f556e6b6e6f776e20766572696669636174696f6e206572726f720000000000005f82015250565b5f6111fa601a83610dc8565b9150611205826111c6565b602082019050919050565b5f6020820190508181035f830152611227816111ee565b9050919050565b7f50726f6f6620766572696669636174696f6e206661696c65643a20556e6b6e6f5f8201527f776e206572726f72000000000000000000000000000000000000000000000000602082015250565b5f611288602883610dc8565b91506112938261122e565b604082019050919050565b5f6020820190508181035f8301526112b58161127c565b9050919050565b5f6112c682610a24565b91507fffffffffffffffffffffffffffffffffffffffffffffffffffffffffffffffff82036112f8576112f7610cfd565b5b600182019050919050565b5f61130d82610a24565b915061131883610a24565b92508282019050808211156113305761132f610cfd565b5b92915050565b7f4e487b71000000000000000000000000000000000000000000000000000000005f52603260045260245ffdfea2646970667358221220c213df172d875c8c268a37576de650bc62ae3456a91f45a43e4f45576641c49664736f6c634300081e0033","linkReferences":{}},"methodIdentifiers":{"checkProof(bytes,bytes)":"f327ff96","getLatestData()":"ab757d61","getSafetyScorePercentage()":"34966b46","guestImageId()":"9a003905","isHealthy()":"e4020804","latestSafetyScore()":"3aebbefd","latestTimestamp()":"8205bf6a","latestTotalAssets()":"b1b7c60d","latestTotalLiabilities()":"e17f84a5","verificationCount()":"0830e22e","verifier()":"2b7ac3f3","verifyAndStore(bytes,bytes)":"a825c6f8"},"id":0}